S0180000547261666669635F4C69676874735F432E73726563E1
S11300000C9434000C9449000C9449000C9449005D
S11300100C9449000C9449000C9449000C94490038
S11300200C9449000C9449000C9449000C94490028
S11300300C9449000C9449000C9449000C94490018
S11300400C9449000C9449000C9449000C94490008
S11300500C9449000C9449000C9449000C944900F8
S11300600C9449000C94490011241FBECFEFD8E032
S1130070DEBFCDBF11E0A0E0B1E0E6E6F2E002C0F1
S113008005900D92A431B107D9F70E9413010C9485
S113009031010C940000CF93DF93CDB7DEB76497A2
S11300A00FB6F894DEBF0FBECDBF9C0184E1E0E043
S11300B0F1E0DE01119601900D928A95E1F723306B
S11300C0310531F02730310531F040E050E09EC079
S11300D042E050E09BC049E050E098C088B198B13C
S11300E0916089131DC098B188B18062981318C0BB
S11300F0FA01EE0FFF1F81E090E08C0F9D1FE80FC7
S1130100F91F808185B9FA013397EE0FFF1F81E053
S113011090E08C0F9D1FE80FF91F80818BB969C097
S113012088B198B19160891313C098B188B1806186
S113013098130EC0FA01EE0FFF1F81E090E08C0FC0
S11301409D1FE80FF91F808185B980818BB951C04B
S113015088B198B1946089131DC098B188B1886042
S1130160981318C0FA013397EE0FFF1F81E090E057
S11301708C0F9D1FE80FF91F808185B9FA01EE0FDE
S1130180FF1F81E090E08C0F9D1FE80FF91F808115
S11301908BB92FC098B188B18260981313C098B1FD
S11301A088B1886098130EC0FA01EE0FFF1F81E03A
S11301B090E08C0F9D1FE80FF91F808185B9808125
S11301C08BB917C098B188B18160981312C098B1E7
S11301D088B1886098130DC0FA01EE0FFF1F81E00B
S11301E090E08C0F9D1FE80FF91F808185B98081F5
S11301F08BB94150510997E968E283E0915060401E
S11302008040E1F700C000002150310912161306A6
S11302100CF464CF64960FB6F894DEBF0FBECDBF66
S1130220DF91CF9108958FE784B99FEF97B98AB989
S113023081E288B987E090E00E944B0081E188B9AF
S113024083E090E00E944B008CE088B987E090E066
S11302500E944B008AE088B983E090E00E944B0042
S1090260E7CFF894FFCF84
S113026640007900240030001900120002007800D2
S10702760000100070
S9030000FC
